{
  "_format": "hh-sol-artifact-1",
  "contractName": "GreeterL1",
  "sourceName": "contracts/ethereum/GreeterL1.sol",
  "abi": [
    {
      "inputs": [
        {
          "internalType": "string",
          "name": "_greeting",
          "type": "string"
        },
        {
          "internalType": "address",
          "name": "_l2Target",
          "type": "address"
        },
        {
          "internalType": "address",
          "name": "_inbox",
          "type": "address"
        }
      ],
      "stateMutability": "nonpayable",
      "type": "constructor"
    },
    {
      "anonymous": false,
      "inputs": [
        {
          "indexed": true,
          "internalType": "uint256",
          "name": "ticketId",
          "type": "uint256"
        }
      ],
      "name": "RetryableTicketCreated",
      "type": "event"
    },
    {
      "inputs": [],
      "name": "greet",
      "outputs": [
        {
          "internalType": "string",
          "name": "",
          "type": "string"
        }
      ],
      "stateMutability": "view",
      "type": "function"
    },
    {
      "inputs": [],
      "name": "greeting",
      "outputs": [
        {
          "internalType": "string",
          "name": "",
          "type": "string"
        }
      ],
      "stateMutability": "view",
      "type": "function"
    },
    {
      "inputs": [],
      "name": "inbox",
      "outputs": [
        {
          "internalType": "contract IInbox",
          "name": "",
          "type": "address"
        }
      ],
      "stateMutability": "view",
      "type": "function"
    },
    {
      "inputs": [],
      "name": "l2Target",
      "outputs": [
        {
          "internalType": "address",
          "name": "",
          "type": "address"
        }
      ],
      "stateMutability": "view",
      "type": "function"
    },
    {
      "inputs": [
        {
          "internalType": "string",
          "name": "_greeting",
          "type": "string"
        }
      ],
      "name": "setGreeting",
      "outputs": [],
      "stateMutability": "nonpayable",
      "type": "function"
    },
    {
      "inputs": [
        {
          "internalType": "string",
          "name": "_greeting",
          "type": "string"
        },
        {
          "internalType": "uint256",
          "name": "maxSubmissionCost",
          "type": "uint256"
        },
        {
          "internalType": "uint256",
          "name": "gasLimit",
          "type": "uint256"
        },
        {
          "internalType": "uint256",
          "name": "maxFeePerGas",
          "type": "uint256"
        }
      ],
      "name": "setGreetingInL2",
      "outputs": [
        {
          "internalType": "uint256",
          "name": "",
          "type": "uint256"
        }
      ],
      "stateMutability": "payable",
      "type": "function"
    },
    {
      "inputs": [
        {
          "internalType": "address",
          "name": "_l2Target",
          "type": "address"
        }
      ],
      "name": "updateL2Target",
      "outputs": [],
      "stateMutability": "nonpayable",
      "type": "function"
    }
  ],
  "bytecode": "0x60806040523480156200001157600080fd5b506040516200106c3803806200106c83398181016040528101906200003791906200038c565b816000806101000a81548173ffffffffffffffffffffffffffffffffffffffff021916908373ffffffffffffffffffffffffffffffffffffffff16021790555080600160006101000a81548173ffffffffffffffffffffffffffffffffffffffff021916908373ffffffffffffffffffffffffffffffffffffffff1602179055508260029080519060200190620000d0929190620000da565b505050506200046c565b828054620000e89062000436565b90600052602060002090601f0160209004810192826200010c576000855562000158565b82601f106200012757805160ff191683800117855562000158565b8280016001018555821562000158579182015b82811115620001575782518255916020019190600101906200013a565b5b5090506200016791906200016b565b5090565b5b80821115620001865760008160009055506001016200016c565b5090565b6000604051905090565b600080fd5b600080fd5b600080fd5b600080fd5b6000601f19601f8301169050919050565b7f4e487b7100000000000000000000000000000000000000000000000000000000600052604160045260246000fd5b620001f382620001a8565b810181811067ffffffffffffffff82111715620002155762000214620001b9565b5b80604052505050565b60006200022a6200018a565b9050620002388282620001e8565b919050565b600067ffffffffffffffff8211156200025b576200025a620001b9565b5b6200026682620001a8565b9050602081019050919050565b60005b838110156200029357808201518184015260208101905062000276565b83811115620002a3576000848401525b50505050565b6000620002c0620002ba846200023d565b6200021e565b905082815260208101848484011115620002df57620002de620001a3565b5b620002ec84828562000273565b509392505050565b600082601f8301126200030c576200030b6200019e565b5b81516200031e848260208601620002a9565b91505092915050565b600073ffffffffffffffffffffffffffffffffffffffff82169050919050565b6000620003548262000327565b9050919050565b620003668162000347565b81146200037257600080fd5b50565b60008151905062000386816200035b565b92915050565b600080600060608486031215620003a857620003a762000194565b5b600084015167ffffffffffffffff811115620003c957620003c862000199565b5b620003d786828701620002f4565b9350506020620003ea8682870162000375565b9250506040620003fd8682870162000375565b9150509250925092565b7f4e487b7100000000000000000000000000000000000000000000000000000000600052602260045260246000fd5b600060028204905060018216806200044f57607f821691505b6020821081141562000466576200046562000407565b5b50919050565b610bf0806200047c6000396000f3fe6080604052600436106100705760003560e01c8063c2b530d61161004e578063c2b530d6146100f7578063cfae321714610122578063ef690cc01461014d578063fb0e722b1461017857610070565b806318e953241461007557806362a3f5b51461009e578063a4136862146100ce575b600080fd5b34801561008157600080fd5b5061009c60048036038101906100979190610615565b6101a3565b005b6100b860048036038101906100b391906107be565b6101e6565b6040516100c59190610850565b60405180910390f35b3480156100da57600080fd5b506100f560048036038101906100f0919061086b565b61037c565b005b34801561010357600080fd5b5061010c610396565b60405161011991906108c3565b60405180910390f35b34801561012e57600080fd5b506101376103ba565b6040516101449190610966565b60405180910390f35b34801561015957600080fd5b5061016261044c565b60405161016f9190610966565b60405180910390f35b34801561018457600080fd5b5061018d6104da565b60405161019a91906109e7565b60405180910390f35b806000806101000a81548173ffffffffffffffffffffffffffffffffffffffff021916908373ffffffffffffffffffffffffffffffffffffffff16021790555050565b60008063a413686260e01b866040516024016102029190610966565b604051602081830303815290604052907bffffffffffffffffffffffffffffffffffffffffffffffffffffffff19166020820180517bffffffffffffffffffffffffffffffffffffffffffffffffffffffff838183161783525050505090506000600160009054906101000a900473ffffffffffffffffffffffffffffffffffffffff1673ffffffffffffffffffffffffffffffffffffffff1663679b6ded3460008054906101000a900473ffffffffffffffffffffffffffffffffffffffff1660008a33338c8c8b6040518a63ffffffff1660e01b81526004016102ee989796959493929190610a92565b6020604051808303818588803b15801561030757600080fd5b505af115801561031b573d6000803e3d6000fd5b50505050506040513d601f19601f820116820180604052508101906103409190610b2c565b9050807fde92b5b7839f4a2c640f5e3bbb66d415458dadc57a487b0c7fa562ed7c9c896f60405160405180910390a28092505050949350505050565b8060029080519060200190610392929190610500565b5050565b60008054906101000a900473ffffffffffffffffffffffffffffffffffffffff1681565b6060600280546103c990610b88565b80601f01602080910402602001604051908101604052809291908181526020018280546103f590610b88565b80156104425780601f1061041757610100808354040283529160200191610442565b820191906000526020600020905b81548152906001019060200180831161042557829003601f168201915b5050505050905090565b6002805461045990610b88565b80601f016020809104026020016040519081016040528092919081815260200182805461048590610b88565b80156104d25780601f106104a7576101008083540402835291602001916104d2565b820191906000526020600020905b8154815290600101906020018083116104b557829003601f168201915b505050505081565b600160009054906101000a900473ffffffffffffffffffffffffffffffffffffffff1681565b82805461050c90610b88565b90600052602060002090601f01602090048101928261052e5760008555610575565b82601f1061054757805160ff1916838001178555610575565b82800160010185558215610575579182015b82811115610574578251825591602001919060010190610559565b5b5090506105829190610586565b5090565b5b8082111561059f576000816000905550600101610587565b5090565b6000604051905090565b600080fd5b600080fd5b600073ffffffffffffffffffffffffffffffffffffffff82169050919050565b60006105e2826105b7565b9050919050565b6105f2816105d7565b81146105fd57600080fd5b50565b60008135905061060f816105e9565b92915050565b60006020828403121561062b5761062a6105ad565b5b600061063984828501610600565b91505092915050565b600080fd5b600080fd5b6000601f19601f8301169050919050565b7f4e487b7100000000000000000000000000000000000000000000000000000000600052604160045260246000fd5b6106958261064c565b810181811067ffffffffffffffff821117156106b4576106b361065d565b5b80604052505050565b60006106c76105a3565b90506106d3828261068c565b919050565b600067ffffffffffffffff8211156106f3576106f261065d565b5b6106fc8261064c565b9050602081019050919050565b82818337600083830152505050565b600061072b610726846106d8565b6106bd565b90508281526020810184848401111561074757610746610647565b5b610752848285610709565b509392505050565b600082601f83011261076f5761076e610642565b5b813561077f848260208601610718565b91505092915050565b6000819050919050565b61079b81610788565b81146107a657600080fd5b50565b6000813590506107b881610792565b92915050565b600080600080608085870312156107d8576107d76105ad565b5b600085013567ffffffffffffffff8111156107f6576107f56105b2565b5b6108028782880161075a565b9450506020610813878288016107a9565b9350506040610824878288016107a9565b9250506060610835878288016107a9565b91505092959194509250565b61084a81610788565b82525050565b60006020820190506108656000830184610841565b92915050565b600060208284031215610881576108806105ad565b5b600082013567ffffffffffffffff81111561089f5761089e6105b2565b5b6108ab8482850161075a565b91505092915050565b6108bd816105d7565b82525050565b60006020820190506108d860008301846108b4565b92915050565b600081519050919050565b600082825260208201905092915050565b60005b838110156109185780820151818401526020810190506108fd565b83811115610927576000848401525b50505050565b6000610938826108de565b61094281856108e9565b93506109528185602086016108fa565b61095b8161064c565b840191505092915050565b60006020820190508181036000830152610980818461092d565b905092915050565b6000819050919050565b60006109ad6109a86109a3846105b7565b610988565b6105b7565b9050919050565b60006109bf82610992565b9050919050565b60006109d1826109b4565b9050919050565b6109e1816109c6565b82525050565b60006020820190506109fc60008301846109d8565b92915050565b6000819050919050565b6000610a27610a22610a1d84610a02565b610988565b610788565b9050919050565b610a3781610a0c565b82525050565b600081519050919050565b600082825260208201905092915050565b6000610a6482610a3d565b610a6e8185610a48565b9350610a7e8185602086016108fa565b610a878161064c565b840191505092915050565b600061010082019050610aa8600083018b6108b4565b610ab5602083018a610a2e565b610ac26040830189610841565b610acf60608301886108b4565b610adc60808301876108b4565b610ae960a0830186610841565b610af660c0830185610841565b81810360e0830152610b088184610a59565b90509998505050505050505050565b600081519050610b2681610792565b92915050565b600060208284031215610b4257610b416105ad565b5b6000610b5084828501610b17565b91505092915050565b7f4e487b7100000000000000000000000000000000000000000000000000000000600052602260045260246000fd5b60006002820490506001821680610ba057607f821691505b60208210811415610bb457610bb3610b59565b5b5091905056fea264697066735822122088ed6e16225bce26fd31e29b66ebb2cdfef3116db9fb82d9cb3d9237de6407b164736f6c63430008090033",
  "linkReferences": {},
  "deployedLinkReferences": {}
}