{
  "_format": "hh-sol-artifact-1",
  "contractName": "GreeterL2",
  "sourceName": "contracts/arbitrum/GreeterL2.sol",
  "abi": [
    {
      "inputs": [
        {
          "internalType": "string",
          "name": "_greeting",
          "type": "string"
        },
        {
          "internalType": "address",
          "name": "_l1Target",
          "type": "address"
        }
      ],
      "stateMutability": "nonpayable",
      "type": "constructor"
    },
    {
      "anonymous": false,
      "inputs": [
        {
          "indexed": true,
          "internalType": "uint256",
          "name": "withdrawalId",
          "type": "uint256"
        }
      ],
      "name": "L2ToL1TxCreated",
      "type": "event"
    },
    {
      "inputs": [],
      "name": "greet",
      "outputs": [
        {
          "internalType": "string",
          "name": "",
          "type": "string"
        }
      ],
      "stateMutability": "view",
      "type": "function"
    },
    {
      "inputs": [],
      "name": "l1Target",
      "outputs": [
        {
          "internalType": "address",
          "name": "",
          "type": "address"
        }
      ],
      "stateMutability": "view",
      "type": "function"
    },
    {
      "inputs": [
        {
          "internalType": "string",
          "name": "_greeting",
          "type": "string"
        }
      ],
      "name": "setGreeting",
      "outputs": [],
      "stateMutability": "nonpayable",
      "type": "function"
    },
    {
      "inputs": [
        {
          "internalType": "string",
          "name": "_greeting",
          "type": "string"
        }
      ],
      "name": "setGreetingInL1",
      "outputs": [
        {
          "internalType": "uint256",
          "name": "",
          "type": "uint256"
        }
      ],
      "stateMutability": "nonpayable",
      "type": "function"
    },
    {
      "inputs": [
        {
          "internalType": "address",
          "name": "_l1Target",
          "type": "address"
        }
      ],
      "name": "updateL1Target",
      "outputs": [],
      "stateMutability": "nonpayable",
      "type": "function"
    }
  ],
  "bytecode": "0x60806040523480156200001157600080fd5b5060405162000cea38038062000cea83398181016040528101906200003791906200034a565b806000806101000a81548173ffffffffffffffffffffffffffffffffffffffff021916908373ffffffffffffffffffffffffffffffffffffffff16021790555081600190805190602001906200008f92919062000098565b50505062000415565b828054620000a690620003df565b90600052602060002090601f016020900481019282620000ca576000855562000116565b82601f10620000e557805160ff191683800117855562000116565b8280016001018555821562000116579182015b8281111562000115578251825591602001919060010190620000f8565b5b50905062000125919062000129565b5090565b5b80821115620001445760008160009055506001016200012a565b5090565b6000604051905090565b600080fd5b600080fd5b600080fd5b600080fd5b6000601f19601f8301169050919050565b7f4e487b7100000000000000000000000000000000000000000000000000000000600052604160045260246000fd5b620001b18262000166565b810181811067ffffffffffffffff82111715620001d357620001d262000177565b5b80604052505050565b6000620001e862000148565b9050620001f68282620001a6565b919050565b600067ffffffffffffffff82111562000219576200021862000177565b5b620002248262000166565b9050602081019050919050565b60005b838110156200025157808201518184015260208101905062000234565b8381111562000261576000848401525b50505050565b60006200027e6200027884620001fb565b620001dc565b9050828152602081018484840111156200029d576200029c62000161565b5b620002aa84828562000231565b509392505050565b600082601f830112620002ca57620002c96200015c565b5b8151620002dc84826020860162000267565b91505092915050565b600073ffffffffffffffffffffffffffffffffffffffff82169050919050565b60006200031282620002e5565b9050919050565b620003248162000305565b81146200033057600080fd5b50565b600081519050620003448162000319565b92915050565b6000806040838503121562000364576200036362000152565b5b600083015167ffffffffffffffff81111562000385576200038462000157565b5b6200039385828601620002b2565b9250506020620003a68582860162000333565b9150509250929050565b7f4e487b7100000000000000000000000000000000000000000000000000000000600052602260045260246000fd5b60006002820490506001821680620003f857607f821691505b602082108114156200040f576200040e620003b0565b5b50919050565b6108c580620004256000396000f3fe608060405234801561001057600080fd5b50600436106100575760003560e01c80635325e4a61461005c578063a41368621461007a578063bf225ed614610096578063cfae3217146100c6578063f3c61c2b146100e4575b600080fd5b610064610100565b604051610071919061045b565b60405180910390f35b610094600480360381019061008f91906105d0565b610124565b005b6100b060048036038101906100ab91906105d0565b61013e565b6040516100bd9190610632565b60405180910390f35b6100ce6102a2565b6040516100db91906106d5565b60405180910390f35b6100fe60048036038101906100f99190610723565b610334565b005b60008054906101000a900473ffffffffffffffffffffffffffffffffffffffff1681565b806001908051906020019061013a929190610377565b5050565b60008063a413686260e01b8360405160240161015a91906106d5565b604051602081830303815290604052907bffffffffffffffffffffffffffffffffffffffffffffffffffffffff19166020820180517bffffffffffffffffffffffffffffffffffffffffffffffffffffffff838183161783525050505090506000606473ffffffffffffffffffffffffffffffffffffffff1663928c169a60008054906101000a900473ffffffffffffffffffffffffffffffffffffffff16846040518363ffffffff1660e01b81526004016102179291906107a5565b602060405180830381600087803b15801561023157600080fd5b505af1158015610245573d6000803e3d6000fd5b505050506040513d601f19601f820116820180604052508101906102699190610801565b9050807facd96f3817031b95eab52de9132d4a9dd13dac3d9dfcfe950ca9283c89b851a560405160405180910390a28092505050919050565b6060600180546102b19061085d565b80601f01602080910402602001604051908101604052809291908181526020018280546102dd9061085d565b801561032a5780601f106102ff5761010080835404028352916020019161032a565b820191906000526020600020905b81548152906001019060200180831161030d57829003601f168201915b5050505050905090565b806000806101000a81548173ffffffffffffffffffffffffffffffffffffffff021916908373ffffffffffffffffffffffffffffffffffffffff16021790555050565b8280546103839061085d565b90600052602060002090601f0160209004810192826103a557600085556103ec565b82601f106103be57805160ff19168380011785556103ec565b828001600101855582156103ec579182015b828111156103eb5782518255916020019190600101906103d0565b5b5090506103f991906103fd565b5090565b5b808211156104165760008160009055506001016103fe565b5090565b600073ffffffffffffffffffffffffffffffffffffffff82169050919050565b60006104458261041a565b9050919050565b6104558161043a565b82525050565b6000602082019050610470600083018461044c565b92915050565b6000604051905090565b600080fd5b600080fd5b600080fd5b600080fd5b6000601f19601f8301169050919050565b7f4e487b7100000000000000000000000000000000000000000000000000000000600052604160045260246000fd5b6104dd82610494565b810181811067ffffffffffffffff821117156104fc576104fb6104a5565b5b80604052505050565b600061050f610476565b905061051b82826104d4565b919050565b600067ffffffffffffffff82111561053b5761053a6104a5565b5b61054482610494565b9050602081019050919050565b82818337600083830152505050565b600061057361056e84610520565b610505565b90508281526020810184848401111561058f5761058e61048f565b5b61059a848285610551565b509392505050565b600082601f8301126105b7576105b661048a565b5b81356105c7848260208601610560565b91505092915050565b6000602082840312156105e6576105e5610480565b5b600082013567ffffffffffffffff81111561060457610603610485565b5b610610848285016105a2565b91505092915050565b6000819050919050565b61062c81610619565b82525050565b60006020820190506106476000830184610623565b92915050565b600081519050919050565b600082825260208201905092915050565b60005b8381101561068757808201518184015260208101905061066c565b83811115610696576000848401525b50505050565b60006106a78261064d565b6106b18185610658565b93506106c1818560208601610669565b6106ca81610494565b840191505092915050565b600060208201905081810360008301526106ef818461069c565b905092915050565b6107008161043a565b811461070b57600080fd5b50565b60008135905061071d816106f7565b92915050565b60006020828403121561073957610738610480565b5b60006107478482850161070e565b91505092915050565b600081519050919050565b600082825260208201905092915050565b600061077782610750565b610781818561075b565b9350610791818560208601610669565b61079a81610494565b840191505092915050565b60006040820190506107ba600083018561044c565b81810360208301526107cc818461076c565b90509392505050565b6107de81610619565b81146107e957600080fd5b50565b6000815190506107fb816107d5565b92915050565b60006020828403121561081757610816610480565b5b6000610825848285016107ec565b91505092915050565b7f4e487b7100000000000000000000000000000000000000000000000000000000600052602260045260246000fd5b6000600282049050600182168061087557607f821691505b602082108114156108895761088861082e565b5b5091905056fea2646970667358221220643278c7cd23385e2a183877e745ebd86b11945feb2eb3564d5f43c395c25d0b64736f6c63430008090033",
  "linkReferences": {},
  "deployedLinkReferences": {}
}