{
  "_format": "hh-sol-artifact-1",
  "contractName": "GenerativeArt",
  "sourceName": "contracts/GenerativeArt.sol",
  "abi": [
    {
      "inputs": [],
      "stateMutability": "nonpayable",
      "type": "constructor"
    },
    {
      "anonymous": false,
      "inputs": [
        {
          "indexed": true,
          "internalType": "address",
          "name": "owner",
          "type": "address"
        },
        {
          "indexed": true,
          "internalType": "address",
          "name": "approved",
          "type": "address"
        },
        {
          "indexed": true,
          "internalType": "uint256",
          "name": "tokenId",
          "type": "uint256"
        }
      ],
      "name": "Approval",
      "type": "event"
    },
    {
      "anonymous": false,
      "inputs": [
        {
          "indexed": true,
          "internalType": "address",
          "name": "owner",
          "type": "address"
        },
        {
          "indexed": true,
          "internalType": "address",
          "name": "operator",
          "type": "address"
        },
        {
          "indexed": false,
          "internalType": "bool",
          "name": "approved",
          "type": "bool"
        }
      ],
      "name": "ApprovalForAll",
      "type": "event"
    },
    {
      "anonymous": false,
      "inputs": [
        {
          "indexed": false,
          "internalType": "uint256",
          "name": "_fromTokenId",
          "type": "uint256"
        },
        {
          "indexed": false,
          "internalType": "uint256",
          "name": "_toTokenId",
          "type": "uint256"
        }
      ],
      "name": "BatchMetadataUpdate",
      "type": "event"
    },
    {
      "anonymous": false,
      "inputs": [
        {
          "indexed": false,
          "internalType": "uint256",
          "name": "_tokenId",
          "type": "uint256"
        }
      ],
      "name": "MetadataUpdate",
      "type": "event"
    },
    {
      "anonymous": false,
      "inputs": [
        {
          "indexed": true,
          "internalType": "address",
          "name": "previousOwner",
          "type": "address"
        },
        {
          "indexed": true,
          "internalType": "address",
          "name": "newOwner",
          "type": "address"
        }
      ],
      "name": "OwnershipTransferred",
      "type": "event"
    },
    {
      "anonymous": false,
      "inputs": [
        {
          "indexed": false,
          "internalType": "address",
          "name": "account",
          "type": "address"
        }
      ],
      "name": "Paused",
      "type": "event"
    },
    {
      "anonymous": false,
      "inputs": [
        {
          "indexed": true,
          "internalType": "address",
          "name": "from",
          "type": "address"
        },
        {
          "indexed": true,
          "internalType": "address",
          "name": "to",
          "type": "address"
        },
        {
          "indexed": true,
          "internalType": "uint256",
          "name": "tokenId",
          "type": "uint256"
        }
      ],
      "name": "Transfer",
      "type": "event"
    },
    {
      "anonymous": false,
      "inputs": [
        {
          "indexed": false,
          "internalType": "address",
          "name": "account",
          "type": "address"
        }
      ],
      "name": "Unpaused",
      "type": "event"
    },
    {
      "inputs": [
        {
          "internalType": "address",
          "name": "to",
          "type": "address"
        },
        {
          "internalType": "uint256",
          "name": "tokenId",
          "type": "uint256"
        }
      ],
      "name": "approve",
      "outputs": [],
      "stateMutability": "nonpayable",
      "type": "function"
    },
    {
      "inputs": [
        {
          "internalType": "address",
          "name": "owner",
          "type": "address"
        }
      ],
      "name": "balanceOf",
      "outputs": [
        {
          "internalType": "uint256",
          "name": "",
          "type": "uint256"
        }
      ],
      "stateMutability": "view",
      "type": "function"
    },
    {
      "inputs": [
        {
          "internalType": "uint256",
          "name": "tokenId",
          "type": "uint256"
        }
      ],
      "name": "getApproved",
      "outputs": [
        {
          "internalType": "address",
          "name": "",
          "type": "address"
        }
      ],
      "stateMutability": "view",
      "type": "function"
    },
    {
      "inputs": [
        {
          "internalType": "address",
          "name": "owner",
          "type": "address"
        },
        {
          "internalType": "address",
          "name": "operator",
          "type": "address"
        }
      ],
      "name": "isApprovedForAll",
      "outputs": [
        {
          "internalType": "bool",
          "name": "",
          "type": "bool"
        }
      ],
      "stateMutability": "view",
      "type": "function"
    },
    {
      "inputs": [],
      "name": "name",
      "outputs": [
        {
          "internalType": "string",
          "name": "",
          "type": "string"
        }
      ],
      "stateMutability": "view",
      "type": "function"
    },
    {
      "inputs": [],
      "name": "owner",
      "outputs": [
        {
          "internalType": "address",
          "name": "",
          "type": "address"
        }
      ],
      "stateMutability": "view",
      "type": "function"
    },
    {
      "inputs": [
        {
          "internalType": "uint256",
          "name": "tokenId",
          "type": "uint256"
        }
      ],
      "name": "ownerOf",
      "outputs": [
        {
          "internalType": "address",
          "name": "",
          "type": "address"
        }
      ],
      "stateMutability": "view",
      "type": "function"
    },
    {
      "inputs": [],
      "name": "pause",
      "outputs": [],
      "stateMutability": "nonpayable",
      "type": "function"
    },
    {
      "inputs": [],
      "name": "paused",
      "outputs": [
        {
          "internalType": "bool",
          "name": "",
          "type": "bool"
        }
      ],
      "stateMutability": "view",
      "type": "function"
    },
    {
      "inputs": [],
      "name": "renounceOwnership",
      "outputs": [],
      "stateMutability": "nonpayable",
      "type": "function"
    },
    {
      "inputs": [
        {
          "internalType": "address",
          "name": "to",
          "type": "address"
        },
        {
          "internalType": "string",
          "name": "uri",
          "type": "string"
        }
      ],
      "name": "safeMint",
      "outputs": [],
      "stateMutability": "nonpayable",
      "type": "function"
    },
    {
      "inputs": [
        {
          "internalType": "address",
          "name": "from",
          "type": "address"
        },
        {
          "internalType": "address",
          "name": "to",
          "type": "address"
        },
        {
          "internalType": "uint256",
          "name": "tokenId",
          "type": "uint256"
        }
      ],
      "name": "safeTransferFrom",
      "outputs": [],
      "stateMutability": "nonpayable",
      "type": "function"
    },
    {
      "inputs": [
        {
          "internalType": "address",
          "name": "from",
          "type": "address"
        },
        {
          "internalType": "address",
          "name": "to",
          "type": "address"
        },
        {
          "internalType": "uint256",
          "name": "tokenId",
          "type": "uint256"
        },
        {
          "internalType": "bytes",
          "name": "data",
          "type": "bytes"
        }
      ],
      "name": "safeTransferFrom",
      "outputs": [],
      "stateMutability": "nonpayable",
      "type": "function"
    },
    {
      "inputs": [
        {
          "internalType": "address",
          "name": "operator",
          "type": "address"
        },
        {
          "internalType": "bool",
          "name": "approved",
          "type": "bool"
        }
      ],
      "name": "setApprovalForAll",
      "outputs": [],
      "stateMutability": "nonpayable",
      "type": "function"
    },
    {
      "inputs": [
        {
          "internalType": "bytes4",
          "name": "interfaceId",
          "type": "bytes4"
        }
      ],
      "name": "supportsInterface",
      "outputs": [
        {
          "internalType": "bool",
          "name": "",
          "type": "bool"
        }
      ],
      "stateMutability": "view",
      "type": "function"
    },
    {
      "inputs": [],
      "name": "symbol",
      "outputs": [
        {
          "internalType": "string",
          "name": "",
          "type": "string"
        }
      ],
      "stateMutability": "view",
      "type": "function"
    },
    {
      "inputs": [
        {
          "internalType": "uint256",
          "name": "index",
          "type": "uint256"
        }
      ],
      "name": "tokenByIndex",
      "outputs": [
        {
          "internalType": "uint256",
          "name": "",
          "type": "uint256"
        }
      ],
      "stateMutability": "view",
      "type": "function"
    },
    {
      "inputs": [
        {
          "internalType": "address",
          "name": "owner",
          "type": "address"
        },
        {
          "internalType": "uint256",
          "name": "index",
          "type": "uint256"
        }
      ],
      "name": "tokenOfOwnerByIndex",
      "outputs": [
        {
          "internalType": "uint256",
          "name": "",
          "type": "uint256"
        }
      ],
      "stateMutability": "view",
      "type": "function"
    },
    {
      "inputs": [
        {
          "internalType": "uint256",
          "name": "tokenId",
          "type": "uint256"
        }
      ],
      "name": "tokenURI",
      "outputs": [
        {
          "internalType": "string",
          "name": "",
          "type": "string"
        }
      ],
      "stateMutability": "view",
      "type": "function"
    },
    {
      "inputs": [],
      "name": "totalSupply",
      "outputs": [
        {
          "internalType": "uint256",
          "name": "",
          "type": "uint256"
        }
      ],
      "stateMutability": "view",
      "type": "function"
    },
    {
      "inputs": [
        {
          "internalType": "address",
          "name": "from",
          "type": "address"
        },
        {
          "internalType": "address",
          "name": "to",
          "type": "address"
        },
        {
          "internalType": "uint256",
          "name": "tokenId",
          "type": "uint256"
        }
      ],
      "name": "transferFrom",
      "outputs": [],
      "stateMutability": "nonpayable",
      "type": "function"
    },
    {
      "inputs": [
        {
          "internalType": "address",
          "name": "newOwner",
          "type": "address"
        }
      ],
      "name": "transferOwnership",
      "outputs": [],
      "stateMutability": "nonpayable",
      "type": "function"
    },
    {
      "inputs": [],
      "name": "unpause",
      "outputs": [],
      "stateMutability": "nonpayable",
      "type": "function"
    }
  ],
  "bytecode": "0x60806040523480156200001157600080fd5b506040518060400160405280600d81526020017f47656e65726174697665417274000000000000000000000000000000000000008152506040518060400160405280600381526020017f474149000000000000000000000000000000000000000000000000000000000081525081600090816200008f91906200042d565b508060019081620000a191906200042d565b5050506000600b60006101000a81548160ff021916908315150217905550620000df620000d3620000e560201b60201c565b620000ed60201b60201c565b62000514565b600033905090565b6000600b60019054906101000a900473ffffffffffffffffffffffffffffffffffffffff16905081600b60016101000a81548173ffffffffffffffffffffffffffffffffffffffff021916908373ffffffffffffffffffffffffffffffffffffffff1602179055508173ffffffffffffffffffffffffffffffffffffffff168173ffffffffffffffffffffffffffffffffffffffff167f8be0079c531659141344cd1fd0a4f28419497f9722a3daafe3b4186f6b6457e060405160405180910390a35050565b600081519050919050565b7f4e487b7100000000000000000000000000000000000000000000000000000000600052604160045260246000fd5b7f4e487b7100000000000000000000000000000000000000000000000000000000600052602260045260246000fd5b600060028204905060018216806200023557607f821691505b6020821081036200024b576200024a620001ed565b5b50919050565b60008190508160005260206000209050919050565b60006020601f8301049050919050565b600082821b905092915050565b600060088302620002b57fffffffffffffffffffffffffffffffffffffffffffffffffffffffffffffffff8262000276565b620002c1868362000276565b95508019841693508086168417925050509392505050565b6000819050919050565b6000819050919050565b60006200030e620003086200030284620002d9565b620002e3565b620002d9565b9050919050565b6000819050919050565b6200032a83620002ed565b62000342620003398262000315565b84845462000283565b825550505050565b600090565b620003596200034a565b620003668184846200031f565b505050565b5b818110156200038e57620003826000826200034f565b6001810190506200036c565b5050565b601f821115620003dd57620003a78162000251565b620003b28462000266565b81016020851015620003c2578190505b620003da620003d18562000266565b8301826200036b565b50505b505050565b600082821c905092915050565b60006200040260001984600802620003e2565b1980831691505092915050565b60006200041d8383620003ef565b9150826002028217905092915050565b6200043882620001b3565b67ffffffffffffffff811115620004545762000453620001be565b5b6200046082546200021c565b6200046d82828562000392565b600060209050601f831160018114620004a5576000841562000490578287015190505b6200049c85826200040f565b8655506200050c565b601f198416620004b58662000251565b60005b82811015620004df57848901518255600182019150602085019450602081019050620004b8565b86831015620004ff5784890151620004fb601f891682620003ef565b8355505b6001600288020188555050505b505050505050565b613aba80620005246000396000f3fe608060405234801561001057600080fd5b506004361061014d5760003560e01c80636352211e116100c3578063a22cb4651161007c578063a22cb4651461037a578063b88d4fde14610396578063c87b56dd146103b2578063d204c45e146103e2578063e985e9c5146103fe578063f2fde38b1461042e5761014d565b80636352211e146102ca57806370a08231146102fa578063715018a61461032a5780638456cb59146103345780638da5cb5b1461033e57806395d89b411461035c5761014d565b806323b872dd1161011557806323b872dd1461020a5780632f745c59146102265780633f4ba83a1461025657806342842e0e146102605780634f6ccce71461027c5780635c975abb146102ac5761014d565b806301ffc9a71461015257806306fdde0314610182578063081812fc146101a0578063095ea7b3146101d057806318160ddd146101ec575b600080fd5b61016c6004803603810190610167919061255c565b61044a565b60405161017991906125a4565b60405180910390f35b61018a61045c565b604051610197919061264f565b60405180910390f35b6101ba60048036038101906101b591906126a7565b6104ee565b6040516101c79190612715565b60405180910390f35b6101ea60048036038101906101e5919061275c565b610534565b005b6101f461064b565b60405161020191906127ab565b60405180910390f35b610224600480360381019061021f91906127c6565b610658565b005b610240600480360381019061023b919061275c565b6106b8565b60405161024d91906127ab565b60405180910390f35b61025e61075d565b005b61027a600480360381019061027591906127c6565b61076f565b005b610296600480360381019061029191906126a7565b61078f565b6040516102a391906127ab565b60405180910390f35b6102b4610800565b6040516102c191906125a4565b60405180910390f35b6102e460048036038101906102df91906126a7565b610817565b6040516102f19190612715565b60405180910390f35b610314600480360381019061030f9190612819565b61089d565b60405161032191906127ab565b60405180910390f35b610332610954565b005b61033c610968565b005b61034661097a565b6040516103539190612715565b60405180910390f35b6103646109a4565b604051610371919061264f565b60405180910390f35b610394600480360381019061038f9190612872565b610a36565b005b6103b060048036038101906103ab91906129e7565b610a4c565b005b6103cc60048036038101906103c791906126a7565b610aae565b6040516103d9919061264f565b60405180910390f35b6103fc60048036038101906103f79190612b0b565b610ac0565b005b61041860048036038101906104139190612b67565b610af1565b60405161042591906125a4565b60405180910390f35b61044860048036038101906104439190612819565b610b85565b005b600061045582610c08565b9050919050565b60606000805461046b90612bd6565b80601f016020809104026020016040519081016040528092919081815260200182805461049790612bd6565b80156104e45780601f106104b9576101008083540402835291602001916104e4565b820191906000526020600020905b8154815290600101906020018083116104c757829003601f168201915b5050505050905090565b60006104f982610c69565b6004600083815260200190815260200160002060009054906101000a900473ffffffffffffffffffffffffffffffffffffffff169050919050565b600061053f82610817565b90508073ffffffffffffffffffffffffffffffffffffffff168373ffffffffffffffffffffffffffffffffffffffff16036105af576040517f08c379a00000000000000000000000000000000000000000000000000000000081526004016105a690612c79565b60405180910390fd5b8073ffffffffffffffffffffffffffffffffffffffff166105ce610cb4565b73ffffffffffffffffffffffffffffffffffffffff1614806105fd57506105fc816105f7610cb4565b610af1565b5b61063c576040517f08c379a000000000000000000000000000000000000000000000000000000000815260040161063390612d0b565b60405180910390fd5b6106468383610cbc565b505050565b6000600880549050905090565b610669610663610cb4565b82610d75565b6106a8576040517f08c379a000000000000000000000000000000000000000000000000000000000815260040161069f90612d9d565b60405180910390fd5b6106b3838383610e0a565b505050565b60006106c38361089d565b8210610704576040517f08c379a00000000000000000000000000000000000000000000000000000000081526004016106fb90612e2f565b60405180910390fd5b600660008473ffffffffffffffffffffffffffffffffffffffff1673ffffffffffffffffffffffffffffffffffffffff168152602001908152602001600020600083815260200190815260200160002054905092915050565b610765611103565b61076d611181565b565b61078a83838360405180602001604052806000815250610a4c565b505050565b600061079961064b565b82106107da576040517f08c379a00000000000000000000000000000000000000000000000000000000081526004016107d190612ec1565b60405180910390fd5b600882815481106107ee576107ed612ee1565b5b90600052602060002001549050919050565b6000600b60009054906101000a900460ff16905090565b600080610823836111e4565b9050600073ffffffffffffffffffffffffffffffffffffffff168173ffffffffffffffffffffffffffffffffffffffff1603610894576040517f08c379a000000000000000000000000000000000000000000000000000000000815260040161088b90612f5c565b60405180910390fd5b80915050919050565b60008073ffffffffffffffffffffffffffffffffffffffff168273ffffffffffffffffffffffffffffffffffffffff160361090d576040517f08c379a000000000000000000000000000000000000000000000000000000000815260040161090490612fee565b60405180910390fd5b600360008373ffffffffffffffffffffffffffffffffffffffff1673ffffffffffffffffffffffffffffffffffffffff168152602001908152602001600020549050919050565b61095c611103565b6109666000611221565b565b610970611103565b6109786112e7565b565b6000600b60019054906101000a900473ffffffffffffffffffffffffffffffffffffffff16905090565b6060600180546109b390612bd6565b80601f01602080910402602001604051908101604052809291908181526020018280546109df90612bd6565b8015610a2c5780601f10610a0157610100808354040283529160200191610a2c565b820191906000526020600020905b815481529060010190602001808311610a0f57829003601f168201915b5050505050905090565b610a48610a41610cb4565b838361134a565b5050565b610a5d610a57610cb4565b83610d75565b610a9c576040517f08c379a0000000000000000000000000000000000000000000000000000000008152600401610a9390612d9d565b60405180910390fd5b610aa8848484846114b6565b50505050565b6060610ab982611512565b9050919050565b6000610acc600c611624565b9050610ad8600c611632565b610ae28382611648565b610aec8183611666565b505050565b6000600560008473ffffffffffffffffffffffffffffffffffffffff1673ffffffffffffffffffffffffffffffffffffffff16815260200190815260200160002060008373ffffffffffffffffffffffffffffffffffffffff1673ffffffffffffffffffffffffffffffffffffffff16815260200190815260200160002060009054906101000a900460ff16905092915050565b610b8d611103565b600073ffffffffffffffffffffffffffffffffffffffff168173ffffffffffffffffffffffffffffffffffffffff1603610bfc576040517f08c379a0000000000000000000000000000000000000000000000000000000008152600401610bf390613080565b60405180910390fd5b610c0581611221565b50565b6000634906490660e01b7bffffffffffffffffffffffffffffffffffffffffffffffffffffffff1916827bffffffffffffffffffffffffffffffffffffffffffffffffffffffff19161480610c625750610c618261170a565b5b9050919050565b610c7281611784565b610cb1576040517f08c379a0000000000000000000000000000000000000000000000000000000008152600401610ca890612f5c565b60405180910390fd5b50565b600033905090565b816004600083815260200190815260200160002060006101000a81548173ffffffffffffffffffffffffffffffffffffffff021916908373ffffffffffffffffffffffffffffffffffffffff160217905550808273ffffffffffffffffffffffffffffffffffffffff16610d2f83610817565b73ffffffffffffffffffffffffffffffffffffffff167f8c5be1e5ebec7d5bd14f71427d1e84f3dd0314c0f7b2291e5b200ac8c7c3b92560405160405180910390a45050565b600080610d8183610817565b90508073ffffffffffffffffffffffffffffffffffffffff168473ffffffffffffffffffffffffffffffffffffffff161480610dc35750610dc28185610af1565b5b80610e0157508373ffffffffffffffffffffffffffffffffffffffff16610de9846104ee565b73ffffffffffffffffffffffffffffffffffffffff16145b91505092915050565b8273ffffffffffffffffffffffffffffffffffffffff16610e2a82610817565b73ffffffffffffffffffffffffffffffffffffffff1614610e80576040517f08c379a0000000000000000000000000000000000000000000000000000000008152600401610e7790613112565b60405180910390fd5b600073ffffffffffffffffffffffffffffffffffffffff168273ffffffffffffffffffffffffffffffffffffffff1603610eef576040517f08c379a0000000000000000000000000000000000000000000000000000000008152600401610ee6906131a4565b60405180910390fd5b610efc83838360016117c5565b8273ffffffffffffffffffffffffffffffffffffffff16610f1c82610817565b73ffffffffffffffffffffffffffffffffffffffff1614610f72576040517f08c379a0000000000000000000000000000000000000000000000000000000008152600401610f6990613112565b60405180910390fd5b6004600082815260200190815260200160002060006101000a81549073ffffffffffffffffffffffffffffffffffffffff02191690556001600360008573ffffffffffffffffffffffffffffffffffffffff1673ffffffffffffffffffffffffffffffffffffffff168152602001908152602001600020600082825403925050819055506001600360008473ffffffffffffffffffffffffffffffffffffffff1673ffffffffffffffffffffffffffffffffffffffff16815260200190815260200160002060008282540192505081905550816002600083815260200190815260200160002060006101000a81548173ffffffffffffffffffffffffffffffffffffffff021916908373ffffffffffffffffffffffffffffffffffffffff160217905550808273ffffffffffffffffffffffffffffffffffffffff168473ffffffffffffffffffffffffffffffffffffffff167fddf252ad1be2c89b69c2b068fc378daa952ba7f163c4a11628f55a4df523b3ef60405160405180910390a46110fe83838360016117df565b505050565b61110b610cb4565b73ffffffffffffffffffffffffffffffffffffffff1661112961097a565b73ffffffffffffffffffffffffffffffffffffffff161461117f576040517f08c379a000000000000000000000000000000000000000000000000000000000815260040161117690613210565b60405180910390fd5b565b6111896117e5565b6000600b60006101000a81548160ff0219169083151502179055507f5db9ee0a495bf2e6ff9c91a7834c1ba4fdd244a5e8aa4e537bd38aeae4b073aa6111cd610cb4565b6040516111da9190612715565b60405180910390a1565b60006002600083815260200190815260200160002060009054906101000a900473ffffffffffffffffffffffffffffffffffffffff169050919050565b6000600b60019054906101000a900473ffffffffffffffffffffffffffffffffffffffff16905081600b60016101000a81548173ffffffffffffffffffffffffffffffffffffffff021916908373ffffffffffffffffffffffffffffffffffffffff1602179055508173ffffffffffffffffffffffffffffffffffffffff168173ffffffffffffffffffffffffffffffffffffffff167f8be0079c531659141344cd1fd0a4f28419497f9722a3daafe3b4186f6b6457e060405160405180910390a35050565b6112ef61182e565b6001600b60006101000a81548160ff0219169083151502179055507f62e78cea01bee320cd4e420270b5ea74000d11b0c9f74754ebdbfc544b05a258611333610cb4565b6040516113409190612715565b60405180910390a1565b8173ffffffffffffffffffffffffffffffffffffffff168373ffffffffffffffffffffffffffffffffffffffff16036113b8576040517f08c379a00000000000000000000000000000000000000000000000000000000081526004016113af9061327c565b60405180910390fd5b80600560008573ffffffffffffffffffffffffffffffffffffffff1673ffffffffffffffffffffffffffffffffffffffff16815260200190815260200160002060008473ffffffffffffffffffffffffffffffffffffffff1673ffffffffffffffffffffffffffffffffffffffff16815260200190815260200160002060006101000a81548160ff0219169083151502179055508173ffffffffffffffffffffffffffffffffffffffff168373ffffffffffffffffffffffffffffffffffffffff167f17307eab39ab6107e8899845ad3d59bd9653f200f220920489ca2b5937696c31836040516114a991906125a4565b60405180910390a3505050565b6114c1848484610e0a565b6114cd84848484611878565b61150c576040517f08c379a00000000000000000000000000000000000000000000000000000000081526004016115039061330e565b60405180910390fd5b50505050565b606061151d82610c69565b6000600a6000848152602001908152602001600020805461153d90612bd6565b80601f016020809104026020016040519081016040528092919081815260200182805461156990612bd6565b80156115b65780601f1061158b576101008083540402835291602001916115b6565b820191906000526020600020905b81548152906001019060200180831161159957829003601f168201915b5050505050905060006115c76119ff565b905060008151036115dc57819250505061161f565b6000825111156116115780826040516020016115f992919061336a565b6040516020818303038152906040529250505061161f565b61161a84611a16565b925050505b919050565b600081600001549050919050565b6001816000016000828254019250508190555050565b611662828260405180602001604052806000815250611a7e565b5050565b61166f82611784565b6116ae576040517f08c379a00000000000000000000000000000000000000000000000000000000081526004016116a590613400565b60405180910390fd5b80600a600084815260200190815260200160002090816116ce91906135cc565b507ff8e1a15aba9398e019f0b49df1a4fde98ee17ae345cb5f6b5e2c27f5033e8ce7826040516116fe91906127ab565b60405180910390a15050565b60007f780e9d63000000000000000000000000000000000000000000000000000000007bffffffffffffffffffffffffffffffffffffffffffffffffffffffff1916827bffffffffffffffffffffffffffffffffffffffffffffffffffffffff1916148061177d575061177c82611ad9565b5b9050919050565b60008073ffffffffffffffffffffffffffffffffffffffff166117a6836111e4565b73ffffffffffffffffffffffffffffffffffffffff1614159050919050565b6117cd61182e565b6117d984848484611bbb565b50505050565b50505050565b6117ed610800565b61182c576040517f08c379a0000000000000000000000000000000000000000000000000000000008152600401611823906136ea565b60405180910390fd5b565b611836610800565b15611876576040517f08c379a000000000000000000000000000000000000000000000000000000000815260040161186d90613756565b60405180910390fd5b565b60006118998473ffffffffffffffffffffffffffffffffffffffff16611d19565b156119f2578373ffffffffffffffffffffffffffffffffffffffff1663150b7a026118c2610cb4565b8786866040518563ffffffff1660e01b81526004016118e494939291906137cb565b6020604051808303816000875af192505050801561192057506040513d601f19601f8201168201806040525081019061191d919061382c565b60015b6119a2573d8060008114611950576040519150601f19603f3d011682016040523d82523d6000602084013e611955565b606091505b50600081510361199a576040517f08c379a00000000000000000000000000000000000000000000000000000000081526004016119919061330e565b60405180910390fd5b805181602001fd5b63150b7a0260e01b7bffffffffffffffffffffffffffffffffffffffffffffffffffffffff1916817bffffffffffffffffffffffffffffffffffffffffffffffffffffffff1916149150506119f7565b600190505b949350505050565b606060405180602001604052806000815250905090565b6060611a2182610c69565b6000611a2b6119ff565b90506000815111611a4b5760405180602001604052806000815250611a76565b80611a5584611d3c565b604051602001611a6692919061336a565b6040516020818303038152906040525b915050919050565b611a888383611e0a565b611a956000848484611878565b611ad4576040517f08c379a0000000000000000000000000000000000000000000000000000000008152600401611acb9061330e565b60405180910390fd5b505050565b60007f80ac58cd000000000000000000000000000000000000000000000000000000007bffffffffffffffffffffffffffffffffffffffffffffffffffffffff1916827bffffffffffffffffffffffffffffffffffffffffffffffffffffffff19161480611ba457507f5b5e139f000000000000000000000000000000000000000000000000000000007bffffffffffffffffffffffffffffffffffffffffffffffffffffffff1916827bffffffffffffffffffffffffffffffffffffffffffffffffffffffff1916145b80611bb45750611bb382612027565b5b9050919050565b611bc784848484612091565b6001811115611c0b576040517f08c379a0000000000000000000000000000000000000000000000000000000008152600401611c02906138cb565b60405180910390fd5b6000829050600073ffffffffffffffffffffffffffffffffffffffff168573ffffffffffffffffffffffffffffffffffffffff1603611c5257611c4d81612097565b611c91565b8373ffffffffffffffffffffffffffffffffffffffff168573ffffffffffffffffffffffffffffffffffffffff1614611c9057611c8f85826120e0565b5b5b600073ffffffffffffffffffffffffffffffffffffffff168473ffffffffffffffffffffffffffffffffffffffff1603611cd357611cce8161224d565b611d12565b8473ffffffffffffffffffffffffffffffffffffffff168473ffffffffffffffffffffffffffffffffffffffff1614611d1157611d10848261231e565b5b5b5050505050565b6000808273ffffffffffffffffffffffffffffffffffffffff163b119050919050565b606060006001611d4b8461239d565b01905060008167ffffffffffffffff811115611d6a57611d696128bc565b5b6040519080825280601f01601f191660200182016040528015611d9c5781602001600182028036833780820191505090505b509050600082602001820190505b600115611dff578080600190039150507f3031323334353637383961626364656600000000000000000000000000000000600a86061a8153600a8581611df357611df26138eb565b5b04945060008503611daa575b819350505050919050565b600073ffffffffffffffffffffffffffffffffffffffff168273ffffffffffffffffffffffffffffffffffffffff1603611e79576040517f08c379a0000000000000000000000000000000000000000000000000000000008152600401611e7090613966565b60405180910390fd5b611e8281611784565b15611ec2576040517f08c379a0000000000000000000000000000000000000000000000000000000008152600401611eb9906139d2565b60405180910390fd5b611ed06000838360016117c5565b611ed981611784565b15611f19576040517f08c379a0000000000000000000000000000000000000000000000000000000008152600401611f10906139d2565b60405180910390fd5b6001600360008473ffffffffffffffffffffffffffffffffffffffff1673ffffffffffffffffffffffffffffffffffffffff16815260200190815260200160002060008282540192505081905550816002600083815260200190815260200160002060006101000a81548173ffffffffffffffffffffffffffffffffffffffff021916908373ffffffffffffffffffffffffffffffffffffffff160217905550808273ffffffffffffffffffffffffffffffffffffffff16600073ffffffffffffffffffffffffffffffffffffffff167fddf252ad1be2c89b69c2b068fc378daa952ba7f163c4a11628f55a4df523b3ef60405160405180910390a46120236000838360016117df565b5050565b60007f01ffc9a7000000000000000000000000000000000000000000000000000000007bffffffffffffffffffffffffffffffffffffffffffffffffffffffff1916827bffffffffffffffffffffffffffffffffffffffffffffffffffffffff1916149050919050565b50505050565b6008805490506009600083815260200190815260200160002081905550600881908060018154018082558091505060019003906000526020600020016000909190919091505550565b600060016120ed8461089d565b6120f79190613a21565b90506000600760008481526020019081526020016000205490508181146121dc576000600660008673ffffffffffffffffffffffffffffffffffffffff1673ffffffffffffffffffffffffffffffffffffffff168152602001908152602001600020600084815260200190815260200160002054905080600660008773ffffffffffffffffffffffffffffffffffffffff1673ffffffffffffffffffffffffffffffffffffffff168152602001908152602001600020600084815260200190815260200160002081905550816007600083815260200190815260200160002081905550505b6007600084815260200190815260200160002060009055600660008573ffffffffffffffffffffffffffffffffffffffff1673ffffffffffffffffffffffffffffffffffffffff16815260200190815260200160002060008381526020019081526020016000206000905550505050565b600060016008805490506122619190613a21565b905060006009600084815260200190815260200160002054905060006008838154811061229157612290612ee1565b5b9060005260206000200154905080600883815481106122b3576122b2612ee1565b5b90600052602060002001819055508160096000838152602001908152602001600020819055506009600085815260200190815260200160002060009055600880548061230257612301613a55565b5b6001900381819060005260206000200160009055905550505050565b60006123298361089d565b905081600660008573ffffffffffffffffffffffffffffffffffffffff1673ffffffffffffffffffffffffffffffffffffffff168152602001908152602001600020600083815260200190815260200160002081905550806007600084815260200190815260200160002081905550505050565b600080600090507a184f03e93ff9f4daa797ed6e38ed64bf6a1f01000000000000000083106123fb577a184f03e93ff9f4daa797ed6e38ed64bf6a1f01000000000000000083816123f1576123f06138eb565b5b0492506040810190505b6d04ee2d6d415b85acef81000000008310612438576d04ee2d6d415b85acef8100000000838161242e5761242d6138eb565b5b0492506020810190505b662386f26fc10000831061246757662386f26fc10000838161245d5761245c6138eb565b5b0492506010810190505b6305f5e1008310612490576305f5e1008381612486576124856138eb565b5b0492506008810190505b61271083106124b55761271083816124ab576124aa6138eb565b5b0492506004810190505b606483106124d857606483816124ce576124cd6138eb565b5b0492506002810190505b600a83106124e7576001810190505b80915050919050565b6000604051905090565b600080fd5b600080fd5b60007fffffffff0000000000000000000000000000000000000000000000000000000082169050919050565b61253981612504565b811461254457600080fd5b50565b60008135905061255681612530565b92915050565b600060208284031215612572576125716124fa565b5b600061258084828501612547565b91505092915050565b60008115159050919050565b61259e81612589565b82525050565b60006020820190506125b96000830184612595565b92915050565b600081519050919050565b600082825260208201905092915050565b60005b838110156125f95780820151818401526020810190506125de565b60008484015250505050565b6000601f19601f8301169050919050565b6000612621826125bf565b61262b81856125ca565b935061263b8185602086016125db565b61264481612605565b840191505092915050565b600060208201905081810360008301526126698184612616565b905092915050565b6000819050919050565b61268481612671565b811461268f57600080fd5b50565b6000813590506126a18161267b565b92915050565b6000602082840312156126bd576126bc6124fa565b5b60006126cb84828501612692565b91505092915050565b600073ffffffffffffffffffffffffffffffffffffffff82169050919050565b60006126ff826126d4565b9050919050565b61270f816126f4565b82525050565b600060208201905061272a6000830184612706565b92915050565b612739816126f4565b811461274457600080fd5b50565b60008135905061275681612730565b92915050565b60008060408385031215612773576127726124fa565b5b600061278185828601612747565b925050602061279285828601612692565b9150509250929050565b6127a581612671565b82525050565b60006020820190506127c0600083018461279c565b92915050565b6000806000606084860312156127df576127de6124fa565b5b60006127ed86828701612747565b93505060206127fe86828701612747565b925050604061280f86828701612692565b9150509250925092565b60006020828403121561282f5761282e6124fa565b5b600061283d84828501612747565b91505092915050565b61284f81612589565b811461285a57600080fd5b50565b60008135905061286c81612846565b92915050565b60008060408385031215612889576128886124fa565b5b600061289785828601612747565b92505060206128a88582860161285d565b9150509250929050565b600080fd5b600080fd5b7f4e487b7100000000000000000000000000000000000000000000000000000000600052604160045260246000fd5b6128f482612605565b810181811067ffffffffffffffff82111715612913576129126128bc565b5b80604052505050565b60006129266124f0565b905061293282826128eb565b919050565b600067ffffffffffffffff821115612952576129516128bc565b5b61295b82612605565b9050602081019050919050565b82818337600083830152505050565b600061298a61298584612937565b61291c565b9050828152602081018484840111156129a6576129a56128b7565b5b6129b1848285612968565b509392505050565b600082601f8301126129ce576129cd6128b2565b5b81356129de848260208601612977565b91505092915050565b60008060008060808587031215612a0157612a006124fa565b5b6000612a0f87828801612747565b9450506020612a2087828801612747565b9350506040612a3187828801612692565b925050606085013567ffffffffffffffff811115612a5257612a516124ff565b5b612a5e878288016129b9565b91505092959194509250565b600067ffffffffffffffff821115612a8557612a846128bc565b5b612a8e82612605565b9050602081019050919050565b6000612aae612aa984612a6a565b61291c565b905082815260208101848484011115612aca57612ac96128b7565b5b612ad5848285612968565b509392505050565b600082601f830112612af257612af16128b2565b5b8135612b02848260208601612a9b565b91505092915050565b60008060408385031215612b2257612b216124fa565b5b6000612b3085828601612747565b925050602083013567ffffffffffffffff811115612b5157612b506124ff565b5b612b5d85828601612add565b9150509250929050565b60008060408385031215612b7e57612b7d6124fa565b5b6000612b8c85828601612747565b9250506020612b9d85828601612747565b9150509250929050565b7f4e487b7100000000000000000000000000000000000000000000000000000000600052602260045260246000fd5b60006002820490506001821680612bee57607f821691505b602082108103612c0157612c00612ba7565b5b50919050565b7f4552433732313a20617070726f76616c20746f2063757272656e74206f776e6560008201527f7200000000000000000000000000000000000000000000000000000000000000602082015250565b6000612c636021836125ca565b9150612c6e82612c07565b604082019050919050565b60006020820190508181036000830152612c9281612c56565b9050919050565b7f4552433732313a20617070726f76652063616c6c6572206973206e6f7420746f60008201527f6b656e206f776e6572206f7220617070726f76656420666f7220616c6c000000602082015250565b6000612cf5603d836125ca565b9150612d0082612c99565b604082019050919050565b60006020820190508181036000830152612d2481612ce8565b9050919050565b7f4552433732313a2063616c6c6572206973206e6f7420746f6b656e206f776e6560008201527f72206f7220617070726f76656400000000000000000000000000000000000000602082015250565b6000612d87602d836125ca565b9150612d9282612d2b565b604082019050919050565b60006020820190508181036000830152612db681612d7a565b9050919050565b7f455243373231456e756d657261626c653a206f776e657220696e646578206f7560008201527f74206f6620626f756e6473000000000000000000000000000000000000000000602082015250565b6000612e19602b836125ca565b9150612e2482612dbd565b604082019050919050565b60006020820190508181036000830152612e4881612e0c565b9050919050565b7f455243373231456e756d657261626c653a20676c6f62616c20696e646578206f60008201527f7574206f6620626f756e64730000000000000000000000000000000000000000602082015250565b6000612eab602c836125ca565b9150612eb682612e4f565b604082019050919050565b60006020820190508181036000830152612eda81612e9e565b9050919050565b7f4e487b7100000000000000000000000000000000000000000000000000000000600052603260045260246000fd5b7f4552433732313a20696e76616c696420746f6b656e2049440000000000000000600082015250565b6000612f466018836125ca565b9150612f5182612f10565b602082019050919050565b60006020820190508181036000830152612f7581612f39565b9050919050565b7f4552433732313a2061646472657373207a65726f206973206e6f74206120766160008201527f6c6964206f776e65720000000000000000000000000000000000000000000000602082015250565b6000612fd86029836125ca565b9150612fe382612f7c565b604082019050919050565b6000602082019050818103600083015261300781612fcb565b9050919050565b7f4f776e61626c653a206e6577206f776e657220697320746865207a65726f206160008201527f6464726573730000000000000000000000000000000000000000000000000000602082015250565b600061306a6026836125ca565b91506130758261300e565b604082019050919050565b600060208201905081810360008301526130998161305d565b9050919050565b7f4552433732313a207472616e736665722066726f6d20696e636f72726563742060008201527f6f776e6572000000000000000000000000000000000000000000000000000000602082015250565b60006130fc6025836125ca565b9150613107826130a0565b604082019050919050565b6000602082019050818103600083015261312b816130ef565b9050919050565b7f4552433732313a207472616e7366657220746f20746865207a65726f2061646460008201527f7265737300000000000000000000000000000000000000000000000000000000602082015250565b600061318e6024836125ca565b915061319982613132565b604082019050919050565b600060208201905081810360008301526131bd81613181565b9050919050565b7f4f776e61626c653a2063616c6c6572206973206e6f7420746865206f776e6572600082015250565b60006131fa6020836125ca565b9150613205826131c4565b602082019050919050565b60006020820190508181036000830152613229816131ed565b9050919050565b7f4552433732313a20617070726f766520746f2063616c6c657200000000000000600082015250565b60006132666019836125ca565b915061327182613230565b602082019050919050565b6000602082019050818103600083015261329581613259565b9050919050565b7f4552433732313a207472616e7366657220746f206e6f6e20455243373231526560008201527f63656976657220696d706c656d656e7465720000000000000000000000000000602082015250565b60006132f86032836125ca565b91506133038261329c565b604082019050919050565b60006020820190508181036000830152613327816132eb565b9050919050565b600081905092915050565b6000613344826125bf565b61334e818561332e565b935061335e8185602086016125db565b80840191505092915050565b60006133768285613339565b91506133828284613339565b91508190509392505050565b7f45524337323155524953746f726167653a2055524920736574206f66206e6f6e60008201527f6578697374656e7420746f6b656e000000000000000000000000000000000000602082015250565b60006133ea602e836125ca565b91506133f58261338e565b604082019050919050565b60006020820190508181036000830152613419816133dd565b9050919050565b60008190508160005260206000209050919050565b60006020601f8301049050919050565b600082821b905092915050565b6000600883026134827fffffffffffffffffffffffffffffffffffffffffffffffffffffffffffffffff82613445565b61348c8683613445565b95508019841693508086168417925050509392505050565b6000819050919050565b60006134c96134c46134bf84612671565b6134a4565b612671565b9050919050565b6000819050919050565b6134e3836134ae565b6134f76134ef826134d0565b848454613452565b825550505050565b600090565b61350c6134ff565b6135178184846134da565b505050565b5b8181101561353b57613530600082613504565b60018101905061351d565b5050565b601f8211156135805761355181613420565b61355a84613435565b81016020851015613569578190505b61357d61357585613435565b83018261351c565b50505b505050565b600082821c905092915050565b60006135a360001984600802613585565b1980831691505092915050565b60006135bc8383613592565b9150826002028217905092915050565b6135d5826125bf565b67ffffffffffffffff8111156135ee576135ed6128bc565b5b6135f88254612bd6565b61360382828561353f565b600060209050601f8311600181146136365760008415613624578287015190505b61362e85826135b0565b865550613696565b601f19841661364486613420565b60005b8281101561366c57848901518255600182019150602085019450602081019050613647565b868310156136895784890151613685601f891682613592565b8355505b6001600288020188555050505b505050505050565b7f5061757361626c653a206e6f7420706175736564000000000000000000000000600082015250565b60006136d46014836125ca565b91506136df8261369e565b602082019050919050565b60006020820190508181036000830152613703816136c7565b9050919050565b7f5061757361626c653a2070617573656400000000000000000000000000000000600082015250565b60006137406010836125ca565b915061374b8261370a565b602082019050919050565b6000602082019050818103600083015261376f81613733565b9050919050565b600081519050919050565b600082825260208201905092915050565b600061379d82613776565b6137a78185613781565b93506137b78185602086016125db565b6137c081612605565b840191505092915050565b60006080820190506137e06000830187612706565b6137ed6020830186612706565b6137fa604083018561279c565b818103606083015261380c8184613792565b905095945050505050565b60008151905061382681612530565b92915050565b600060208284031215613842576138416124fa565b5b600061385084828501613817565b91505092915050565b7f455243373231456e756d657261626c653a20636f6e736563757469766520747260008201527f616e7366657273206e6f7420737570706f727465640000000000000000000000602082015250565b60006138b56035836125ca565b91506138c082613859565b604082019050919050565b600060208201905081810360008301526138e4816138a8565b9050919050565b7f4e487b7100000000000000000000000000000000000000000000000000000000600052601260045260246000fd5b7f4552433732313a206d696e7420746f20746865207a65726f2061646472657373600082015250565b60006139506020836125ca565b915061395b8261391a565b602082019050919050565b6000602082019050818103600083015261397f81613943565b9050919050565b7f4552433732313a20746f6b656e20616c7265616479206d696e74656400000000600082015250565b60006139bc601c836125ca565b91506139c782613986565b602082019050919050565b600060208201905081810360008301526139eb816139af565b9050919050565b7f4e487b7100000000000000000000000000000000000000000000000000000000600052601160045260246000fd5b6000613a2c82612671565b9150613a3783612671565b9250828203905081811115613a4f57613a4e6139f2565b5b92915050565b7f4e487b7100000000000000000000000000000000000000000000000000000000600052603160045260246000fdfea2646970667358221220714eb509568dfb94cbcf43a35026869dcb66b3bc155c8e4f8b79a7d3ea9a3aa264736f6c63430008120033",
  "linkReferences": {},
  "deployedLinkReferences": {}
}